:020000002118C5
:0300030002006890
:03000B00020026CA
:0F0013000200160EEEC394064008BD00057D01E5
:0F002200780F323275A803758CFF758A80C28DF6
:10003100BA0118DC2E7A00EBF9BB0104780A80239F
:10004100BB02047803801C78078018D816B9010612
:0F00510079027803800DB90206790378078004DD
:100060007901780A75A883327A01E9FB7C0F7D005B
:0E00700075A0FB32BA0103EC8001E8B40F0763
:10007E007590F975809222B40E077590F975809976
:0E008E0022B40D077590F97580B022B40C07EE
:10009C007590F97580A422B40B077590F97580F9E9
:0E00AC0022B40A077590F97580C022B40907C6
:1000BA007590C075809022B408077590C0758080CD
:0E00CA0022B407077590C07580F822B40607AF
:1000D8007590C075808222B405077590C0758092AE
:0E00E80022B404077590C075809922B40307F6
:1000F6007590C07580B022B402077590C07580A453
:0E01060022B401077590C07580F9227590C073
:100114007580C02275A883758901758CFF758A80E6
:0F01240075B8057588157901780A7A0075A0FEFF
:0F013300120074BA011175A0FB80F5E812007478
:0E014200BA010575A0FB80E9B9011775A88701
:1001500075A0FEEEC394064009BD00067D01780F30
:0E01600080D180CF75A8837E007D00B9020596
:0A016E0075A0FD80C075A0FB80BBEA
:00000001FF
