:020000002108D5
:03000300020020D8
:03000B00020016DA
:0F00130002002A758CFF758AC0C28D08327C01ED
:1000220079037D0F75A0FB32E9B4030280010A3225
:0E0032007800ED14FD600EEDB40F0B7590F923
:0E004000758092780080ED22B40E0A7590F95A
:10004E00758099780080DFB40D0A7590F97580B0CF
:0F005E00780080D2B40C0A7590F97580A47800F0
:0F006D0080C5B40B0A7590F97580F9780080B8DA
:10007C00B40A0A7590F97580C0780080ABB4090A8F
:10008C007590C07580907800809EB4080A7590C0F9
:10009C0075808078008091B4070A7590C07580F8DF
:0F00AC0078008084B4060A7590C0758082780051
:0F00BB000134B4050A7590C07580927800013445
:1000CA00B4040A7590C075809978000134B4030AA3
:1000DA007590C07580B078000134B4020A7590C07A
:1000EA007580A478000134B4010A7590C07580F94E
:0E00FA00780001347590C07580C07800013424
:0F01080075A88775B805758CFE758A3F758901D6
:10011700758815780079017A007B00EC54017043EB
:10012700E9B40103020134B4022C02015275A0FEA6
:0F01370079017A00EB540160047D0F80027D0A8C
:0F0146001132EAB405027B01790280D075A0FD69
:0F0155007D031132790380C575A0FB7D07113240
:100164007B00790180B87D0F11327B007C0080AE6A
:00000001FF
