:02000000211FBE
:0300030002006F89
:03000B00020026CA
:0F0013000200160EEEC394064008BD00057D01E5
:0F002200780F323275A803758CFF758AC0C28DB6
:10003100BA011FDC357A00EBF9BB0104780A802A8A
:10004100BB0104780A8023BB02047803801C780773
:100051008018D816B9010679027803800DB9020615
:100061007903780780047901780A75A883327A01C7
:10007100E9FB7C0F7D0075A0FB32BA0103EC800126
:0E008100E8B40F077590F975809222B40E074F
:10008F007590F975809922B40D077590F97580B048
:0E009F0022B40C077590F97580A422B40B07EB
:1000AD007590F97580F922B40A077590F97580C0BD
:0E00BD0022B409077590C075809022B4080720
:1000CB007590C075808022B407077590C07580F855
:0E00DB0022B406077590C075808222B4050716
:1000E9007590C075809222B404077590C075809987
:0E00F90022B403077590C07580B022B40207D0
:100107007590C07580A422B401077590C07580F9F9
:0E011700227590C07580C02275A8837589017D
:10012500758CFF758AC075B8057588157901780ACB
:100135007A0075A0FE12007BBA011175A0FB80F54F
:0F014500E812007BBA010575A0FB80E9B901172C
:0F01540075A88775A0FEEEC394064009BD00068E
:0F0163007D01780F80D180CF75A8837E007D004D
:0D017200B9020575A0FD80C075A0FB80BB23
:00000001FF
